:100000000C9434000C9446000C9446000C9446006A
:100010000C9446000C9446000C9446000C94460048
:100020000C9446000C9446000C9446000C94460038
:100030000C9446000C9446000C9446000C94460028
:100040000C9446000C9446000C9446000C94460018
:100050000C9446000C9446000C9446000C94460008
:100060000C9446000C94460011241FBECFEFD8E03C
:10007000DEBFCDBF21E0A0E0B1E001C01D92A53000
:10008000B207E1F70E94690B0C946C0C0C94000011
:1000900097B1906297B995B19D7F95B99BB19F7DBE
:1000A0009BB998B19F7D98B995B1926095B995B17A
:1000B0009D7F95B990E021C048B1E2E0F0E0E91BF6
:1000C000F109282F30E002C035952795EA95E2F72F
:1000D00021703327220F331F22953295307F32272C
:1000E000207F3227342F3F7D232B28B925B1226072
:1000F00025B925B12D7F25B99F5F9330E8F288B1EE
:100100008F7D88B990E007C085B1826085B985B1DF
:100110008D7F85B99F5F9330B8F340E01AC098B1E6
:1001200028E030E0241B3109FB0102C0F695E79579
:100130002A95E2F78E2F81708295880F807E9F7DB1
:10014000892B88B985B1826085B985B18D7F85B9E4
:100150004F5F493020F38BB180628BB90895CF9304
:1001600088B1816088B994E69A95F1F720E030E093
:100170000FC0982F9E7F926098B994E69A95F1F7F8
:100180008C7F816088B994E69A95F1F72F5F3F4F95
:1001900020389AE2390768F388B1886088B988B155
:1001A000826088B98BEB92E00197F1F700C0000004
:1001B00088B1982F9E7F946098B994E69A95F1F74C
:1001C0008A7FC82FC160C8B988EC8A95F1F788B1D9
:1001D0008D7F88B982E78BB968ED70E080E00E947E
:1001E00048009AE19A95F1F700C020E030E00C94C5
:1001F000590B62E66BB953E75BB949E74BB990E736
:100200009BB99BB9A0EBABB9F5EBFBB9E7EBEBB94D
:1002100082EB8BB98BB96BB95BB94BB99BB99BB905
:10022000ABB9FBB9EBB98BB98BB96BB95BB94BB94E
:100230009BB99BB9ABB9FBB9EBB98BB98BB96BB9AE
:100240005BB94BB99BB99BB9ABB9FBB9EBB98BB9EE
:100250008BB96BB95BB94BB99BB99BB9ABB9FBB95E
:10026000EBB98BB98BB96BB95BB94BB99BB99BB97E
:10027000ABB9FBB9EBB98BB98BB96BB95BB94BB9FE
:100280009BB99BB9ABB9FBB9EBB98BB98BB96BB95E
:100290005BB94BB99BB99BB9ABB9FBB9EBB98BB99E
:1002A0008BB96BB95BB94BB99BB99BB9ABB9FBB90E
:1002B000EBB98BB98BB96BB95BB94BB99BB99BB92E
:1002C000ABB9FBB9EBB98BB98BB96BB95BB94BB9AE
:1002D0009BB99BB9ABB9FBB9EBB98BB98BB96BB90E
:1002E0005BB94BB99BB99BB9ABB9FBB9EBB98BB94E
:1002F0008BB96BB95BB94BB99BB99BB9ABB9FBB9BE
:10030000EBB98BB98BB96BB95BB94BB99BB99BB9DD
:10031000ABB9FBB9EBB98BB98BB96BB95BB94BB95D
:100320009BB99BB9ABB9FBB9EBB98BB98BB96BB9BD
:100330005BB94BB99BB99BB9ABB9FBB9EBB98BB9FD
:100340008BB96BB95BB94BB99BB99BB9ABB9FBB96D
:10035000EBB98BB98BB96BB95BB94BB99BB99BB98D
:10036000ABB9FBB9EBB98BB98BB96BB95BB94BB90D
:100370009BB99BB9ABB9FBB9EBB98BB98BB96BB96D
:100380005BB94BB99BB99BB9ABB9FBB9EBB98BB9AD
:100390008BB96BB95BB94BB99BB99BB9ABB9FBB91D
:1003A000EBB98BB98BB96BB95BB94BB99BB99BB93D
:1003B000ABB9FBB9EBB98BB98BB96BB95BB94BB9BD
:1003C0009BB99BB9ABB9FBB9EBB98BB98BB96BB91D
:1003D0005BB94BB99BB99BB9ABB9FBB9EBB98BB95D
:1003E0008BB96BB95BB94BB99BB99BB9ABB9FBB9CD
:1003F000EBB98BB98BB96BB95BB94BB99BB99BB9ED
:10040000ABB9FBB9EBB98BB98BB96BB95BB94BB96C
:100410009BB99BB9ABB9FBB9EBB98BB98BB96BB9CC
:100420005BB94BB99BB99BB9ABB9FBB9EBB98BB90C
:100430008BB96BB95BB94BB99BB99BB9ABB9FBB97C
:10044000EBB98BB98BB96BB95BB94BB99BB99BB99C
:10045000ABB9FBB9EBB98BB98BB96BB95BB94BB91C
:100460009BB99BB9ABB9FBB9EBB98BB98BB96BB97C
:100470005BB94BB99BB99BB9ABB9FBB9EBB98BB9BC
:100480008BB96BB95BB94BB99BB99BB9ABB9FBB92C
:10049000EBB98BB98BB96BB95BB94BB980E78BB949
:1004A0008BB950EB5BB945EB4BB9A7EBABB992EB12
:1004B0009BB99BB9F2E6FBB9E3E7EBB969E76BB926
:1004C0008BB98BB95BB94BB9ABB99BB99BB9FBB9CC
:1004D000EBB96BB98BB98BB95BB94BB9ABB99BB9FC
:1004E0009BB9FBB9EBB96BB98BB98BB95BB94BB99C
:1004F000ABB99BB99BB9FBB9EBB96BB98BB98BB9EC
:100500005BB94BB9ABB99BB99BB9FBB9EBB96BB94B
:100510008BB98BB95BB94BB9ABB99BB99BB9FBB97B
:10052000EBB96BB98BB98BB95BB94BB9ABB99BB9AB
:100530009BB9FBB9EBB96BB98BB98BB95BB94BB94B
:10054000ABB99BB99BB9FBB9EBB96BB98BB98BB99B
:100550005BB94BB9ABB99BB99BB9FBB9EBB96BB9FB
:100560008BB98BB95BB94BB9ABB99BB99BB9FBB92B
:10057000EBB96BB98BB98BB95BB94BB9ABB99BB95B
:100580009BB9FBB9EBB96BB98BB98BB95BB94BB9FB
:10059000ABB99BB99BB9FBB9EBB96BB98BB98BB94B
:1005A0005BB94BB9ABB99BB99BB9FBB9EBB96BB9AB
:1005B0008BB98BB95BB94BB9ABB99BB99BB9FBB9DB
:1005C000EBB96BB98BB98BB95BB94BB9ABB99BB90B
:1005D0009BB9FBB9EBB96BB98BB98BB95BB94BB9AB
:1005E000ABB99BB99BB9FBB9EBB96BB98BB98BB9FB
:1005F0005BB94BB9ABB99BB99BB9FBB9EBB96BB95B
:100600008BB98BB95BB94BB9ABB99BB99BB9FBB98A
:10061000EBB96BB98BB98BB95BB94BB9ABB99BB9BA
:100620009BB9FBB9EBB96BB98BB98BB95BB94BB95A
:10063000ABB99BB99BB9FBB9EBB96BB98BB98BB9AA
:100640005BB94BB9ABB99BB99BB9FBB9EBB96BB90A
:100650008BB98BB95BB94BB9ABB99BB99BB9FBB93A
:10066000EBB96BB98BB98BB95BB94BB9ABB99BB96A
:100670009BB9FBB9EBB96BB98BB98BB95BB94BB90A
:10068000ABB99BB99BB9FBB9EBB96BB98BB98BB95A
:100690005BB94BB9ABB99BB99BB9FBB9EBB96BB9BA
:1006A0008BB98BB95BB94BB9ABB99BB99BB9FBB9EA
:1006B000EBB96BB98BB98BB95BB94BB9ABB99BB91A
:1006C0009BB9FBB9EBB96BB98BB98BB95BB94BB9BA
:1006D000ABB99BB99BB9FBB9EBB96BB98BB98BB90A
:1006E0005BB94BB9ABB99BB99BB9FBB9EBB96BB96A
:1006F0008BB98BB95BB94BB9ABB99BB99BB9FBB99A
:10070000EBB96BB98BB98BB95BB94BB9ABB99BB9C9
:100710009BB9FBB9EBB96BB98BB98BB95BB94BB969
:10072000ABB99BB99BB9FBB9EBB96BB98BB98BB9B9
:100730005BB94BB9ABB99BB99BB9FBB9EBB96BB919
:100740008BB98BB95BB94BB987EB8BB982EB8BB9A2
:100750008BB942E64BB9A3E7ABB9F9E7FBB990E730
:100760009BB99BB9E0EBEBB965EB6BB957EB5BB9A8
:100770008BB98BB94BB9ABB9FBB99BB99BB9EBB989
:100780006BB95BB98BB98BB94BB9ABB9FBB99BB939
:100790009BB9EBB96BB95BB98BB98BB94BB9ABB939
:1007A000FBB99BB99BB9EBB96BB95BB98BB98BB989
:1007B0004BB9ABB9FBB99BB99BB9EBB96BB95BB999
:1007C0008BB98BB94BB9ABB9FBB99BB99BB9EBB939
:1007D0006BB95BB98BB98BB94BB9ABB9FBB99BB9E9
:1007E0009BB9EBB96BB95BB98BB98BB94BB9ABB9E9
:1007F000FBB99BB99BB9EBB96BB95BB98BB98BB939
:100800004BB9ABB9FBB99BB99BB9EBB96BB95BB948
:100810008BB98BB94BB9ABB9FBB99BB99BB9EBB9E8
:100820006BB95BB98BB98BB94BB9ABB9FBB99BB998
:100830009BB9EBB96BB95BB98BB98BB94BB9ABB998
:10084000FBB99BB99BB9EBB96BB95BB98BB98BB9E8
:100850004BB9ABB9FBB99BB99BB9EBB96BB95BB9F8
:100860008BB98BB94BB9ABB9FBB99BB99BB9EBB998
:100870006BB95BB98BB98BB94BB9ABB9FBB99BB948
:100880009BB9EBB96BB95BB98BB98BB94BB9ABB948
:10089000FBB99BB99BB9EBB96BB95BB98BB98BB998
:1008A0004BB9ABB9FBB99BB99BB9EBB96BB95BB9A8
:1008B0008BB98BB94BB9ABB9FBB99BB99BB9EBB948
:1008C0006BB95BB98BB98BB94BB9ABB9FBB99BB9F8
:1008D0009BB9EBB96BB95BB98BB98BB94BB9ABB9F8
:1008E000FBB99BB99BB9EBB96BB95BB98BB98BB948
:1008F0004BB9ABB9FBB99BB99BB9EBB96BB95BB958
:100900008BB98BB94BB9ABB9FBB99BB99BB9EBB9F7
:100910006BB95BB98BB98BB94BB9ABB9FBB99BB9A7
:100920009BB9EBB96BB95BB98BB98BB94BB9ABB9A7
:10093000FBB99BB99BB9EBB96BB95BB98BB98BB9F7
:100940004BB9ABB9FBB99BB99BB9EBB96BB95BB907
:100950008BB98BB94BB9ABB9FBB99BB99BB9EBB9A7
:100960006BB95BB98BB98BB94BB9ABB9FBB99BB957
:100970009BB9EBB96BB95BB98BB98BB94BB9ABB957
:10098000FBB99BB99BB9EBB96BB95BB98BB98BB9A7
:100990004BB9ABB9FBB99BB99BB9EBB96BB95BB9B7
:1009A0008BB98BB94BB9ABB9FBB99BB99BB9EBB957
:1009B0006BB95BB98BB98BB94BB9ABB9FBB99BB907
:1009C0009BB9EBB96BB95BB98BB98BB94BB9ABB907
:1009D000FBB99BB99BB9EBB96BB95BB98BB98BB957
:1009E0004BB9ABB9FBB99BB99BB9EBB96BB95BB967
:1009F0008BB98BB94BB983E78BB949E74BB980E722
:100A00008BB98BB9A0EBABB9F5EBFBB9E7EBEBB965
:100A100092EB9BB99BB962E66BB953E75BB94BB9F3
:100A20008BB98BB9ABB9FBB9EBB99BB99BB96BB9B6
:100A30005BB94BB98BB98BB9ABB9FBB9EBB99BB906
:100A40009BB96BB95BB94BB98BB98BB9ABB9FBB976
:100A5000EBB99BB99BB96BB95BB94BB98BB98BB986
:100A6000ABB9FBB9EBB99BB99BB96BB95BB94BB9E6
:100A70008BB98BB9ABB9FBB9EBB99BB99BB96BB966
:100A80005BB94BB98BB98BB9ABB9FBB9EBB99BB9B6
:100A90009BB96BB95BB94BB98BB98BB9ABB9FBB926
:100AA000EBB99BB99BB96BB95BB94BB98BB98BB936
:100AB000ABB9FBB9EBB99BB99BB96BB95BB94BB996
:100AC0008BB98BB9ABB9FBB9EBB99BB99BB96BB916
:100AD0005BB94BB98BB98BB9ABB9FBB9EBB99BB966
:100AE0009BB96BB95BB94BB98BB98BB9ABB9FBB9D6
:100AF000EBB99BB99BB96BB95BB94BB98BB98BB9E6
:100B0000ABB9FBB9EBB99BB99BB96BB95BB94BB945
:100B10008BB98BB9ABB9FBB9EBB99BB99BB96BB9C5
:100B20005BB94BB98BB98BB9ABB9FBB9EBB99BB915
:100B30009BB96BB95BB94BB98BB98BB9ABB9FBB985
:100B4000EBB99BB99BB96BB95BB94BB98BB98BB995
:100B5000ABB9FBB9EBB99BB99BB96BB95BB94BB9F5
:100B60008BB98BB9ABB9FBB9EBB99BB99BB96BB975
:100B70005BB94BB98BB98BB9ABB9FBB9EBB99BB9C5
:100B80009BB96BB95BB94BB98BB98BB9ABB9FBB935
:100B9000EBB99BB99BB96BB95BB94BB98BB98BB945
:100BA000ABB9FBB9EBB99BB99BB96BB95BB94BB9A5
:100BB0008BB98BB9ABB9FBB9EBB99BB99BB96BB925
:100BC0005BB94BB98BB98BB9ABB9FBB9EBB99BB975
:100BD0009BB96BB95BB94BB98BB98BB9ABB9FBB9E5
:100BE000EBB99BB99BB96BB95BB94BB98BB98BB9F5
:100BF000ABB9FBB9EBB99BB99BB96BB95BB94BB955
:100C00008BB98BB9ABB9FBB9EBB99BB99BB96BB9D4
:100C10005BB94BB98BB98BB9ABB9FBB9EBB99BB924
:100C20009BB96BB95BB94BB98BB98BB9ABB9FBB994
:100C3000EBB99BB99BB96BB95BB94BB98BB98BB9A4
:100C4000ABB9FBB9EBB99BB99BB96BB95BB94BB904
:100C50008BB98BB9ABB9FBB9EBB99BB99BB96BB984
:100C60005BB94BB98BB98BB9ABB9FBB9EBB99BB9D4
:100C70009BB96BB95BB94BB98BB98BB9ABB9FBB944
:100C8000EBB99BB99BB96BB95BB94BB98BB98BB954
:100C9000ABB9FBB9EBB99BB99BB96BB95BB94BB9B4
:100CA0008BB98BB980EB8BB955EB5BB947EB4BB983
:100CB00082EB8BB98BB9A2E6ABB9F3E7FBB9E9E7F5
:100CC000EBB990E79BB99BB960EB6BB95BB94BB9DA
:100CD0008BB98BB9ABB9FBB9EBB99BB99BB96BB904
:100CE0005BB94BB98BB98BB9ABB9FBB9EBB99BB954
:100CF0009BB96BB95BB94BB98BB98BB9ABB9FBB9C4
:100D0000EBB99BB99BB96BB95BB94BB98BB98BB9D3
:100D1000ABB9FBB9EBB99BB99BB96BB95BB94BB933
:100D20008BB98BB9ABB9FBB9EBB99BB99BB96BB9B3
:100D30005BB94BB98BB98BB9ABB9FBB9EBB99BB903
:100D40009BB96BB95BB94BB98BB98BB9ABB9FBB973
:100D5000EBB99BB99BB96BB95BB94BB98BB98BB983
:100D6000ABB9FBB9EBB99BB99BB96BB95BB94BB9E3
:100D70008BB98BB9ABB9FBB9EBB99BB99BB96BB963
:100D80005BB94BB98BB98BB9ABB9FBB9EBB99BB9B3
:100D90009BB96BB95BB94BB98BB98BB9ABB9FBB923
:100DA000EBB99BB99BB96BB95BB94BB98BB98BB933
:100DB000ABB9FBB9EBB99BB99BB96BB95BB94BB993
:100DC0008BB98BB9ABB9FBB9EBB99BB99BB96BB913
:100DD0005BB94BB98BB98BB9ABB9FBB9EBB99BB963
:100DE0009BB96BB95BB94BB98BB98BB9ABB9FBB9D3
:100DF000EBB99BB99BB96BB95BB94BB98BB98BB9E3
:100E0000ABB9FBB9EBB99BB99BB96BB95BB94BB942
:100E10008BB98BB9ABB9FBB9EBB99BB99BB96BB9C2
:100E20005BB94BB98BB98BB9ABB9FBB9EBB99BB912
:100E30009BB96BB95BB94BB98BB98BB9ABB9FBB982
:100E4000EBB99BB99BB96BB95BB94BB98BB98BB992
:100E5000ABB9FBB9EBB99BB99BB96BB95BB94BB9F2
:100E60008BB98BB9ABB9FBB9EBB99BB99BB96BB972
:100E70005BB94BB98BB98BB9ABB9FBB9EBB99BB9C2
:100E80009BB96BB95BB94BB98BB98BB9ABB9FBB932
:100E9000EBB99BB99BB96BB95BB94BB98BB98BB942
:100EA000ABB9FBB9EBB99BB99BB96BB95BB94BB9A2
:100EB0008BB98BB9ABB9FBB9EBB99BB99BB96BB922
:100EC0005BB94BB98BB98BB9ABB9FBB9EBB99BB972
:100ED0009BB96BB95BB94BB98BB98BB9ABB9FBB9E2
:100EE000EBB99BB99BB96BB95BB94BB98BB98BB9F2
:100EF000ABB9FBB9EBB99BB99BB96BB95BB94BB952
:100F00008BB98BB9ABB9FBB9EBB99BB99BB96BB9D1
:100F10005BB94BB98BB98BB9ABB9FBB9EBB99BB921
:100F20009BB96BB95BB94BB98BB98BB9ABB9FBB991
:100F3000EBB99BB99BB96BB95BB94BB98BB98BB9A1
:100F4000ABB9FBB9EBB99BB99BB96BB95BB94BB901
:100F50008BB98BB962E66BB953E75BB949E74BB91B
:100F60009BB99BB9A0EBABB9F5EBFBB9E7EBEBB9E0
:100F70008BB98BB96BB95BB94BB99BB99BB9ABB9A1
:100F8000FBB9EBB98BB98BB96BB95BB94BB99BB9F1
:100F90009BB9ABB9FBB9EBB98BB98BB96BB95BB981
:100FA0004BB99BB99BB9ABB9FBB9EBB98BB98BB951
:100FB0006BB95BB94BB99BB99BB9ABB9FBB9EBB991
:100FC0008BB98BB96BB95BB94BB99BB99BB9ABB951
:100FD000FBB9EBB98BB98BB96BB95BB94BB99BB9A1
:100FE0009BB9ABB9FBB9EBB98BB98BB96BB95BB931
:100FF0004BB99BB99BB9ABB9FBB9EBB98BB98BB901
:101000006BB95BB94BB99BB99BB9ABB9FBB9EBB940
:101010008BB98BB96BB95BB94BB99BB99BB9ABB900
:10102000FBB9EBB98BB98BB96BB95BB94BB99BB950
:101030009BB9ABB9FBB9EBB98BB98BB96BB95BB9E0
:101040004BB99BB99BB9ABB9FBB9EBB98BB98BB9B0
:101050006BB95BB94BB99BB99BB9ABB9FBB9EBB9F0
:101060008BB98BB96BB95BB94BB99BB99BB9ABB9B0
:10107000FBB9EBB98BB98BB96BB95BB94BB99BB900
:101080009BB9ABB9FBB9EBB98BB98BB96BB95BB990
:101090004BB99BB99BB9ABB9FBB9EBB98BB98BB960
:1010A0006BB95BB94BB99BB99BB9ABB9FBB9EBB9A0
:1010B0008BB98BB96BB95BB94BB99BB99BB9ABB960
:1010C000FBB9EBB98BB98BB96BB95BB94BB99BB9B0
:1010D0009BB9ABB9FBB9EBB98BB98BB96BB95BB940
:1010E0004BB99BB99BB9ABB9FBB9EBB98BB98BB910
:1010F0006BB95BB94BB99BB99BB9ABB9FBB9EBB950
:101100008BB98BB96BB95BB94BB99BB99BB9ABB90F
:10111000FBB9EBB98BB98BB96BB95BB94BB99BB95F
:101120009BB9ABB9FBB9EBB98BB98BB96BB95BB9EF
:101130004BB99BB99BB9ABB9FBB9EBB98BB98BB9BF
:101140006BB95BB94BB99BB99BB9ABB9FBB9EBB9FF
:101150008BB98BB96BB95BB94BB99BB99BB9ABB9BF
:10116000FBB9EBB98BB98BB96BB95BB94BB99BB90F
:101170009BB9ABB9FBB9EBB98BB98BB96BB95BB99F
:101180004BB99BB99BB9ABB9FBB9EBB98BB98BB96F
:101190006BB95BB94BB99BB99BB9ABB9FBB9EBB9AF
:1011A0008BB98BB96BB95BB94BB99BB99BB9ABB96F
:1011B000FBB9EBB98BB98BB96BB95BB94BB99BB9BF
:1011C0009BB9ABB9FBB9EBB98BB98BB96BB95BB94F
:1011D0004BB99BB99BB9ABB9FBB9EBB98BB98BB91F
:1011E0006BB95BB94BB99BB99BB9ABB9FBB9EBB95F
:1011F0008BB98BB96BB95BB94BB980E78BB98BB93C
:1012000050EB5BB945EB4BB9A7EBABB992EB9BB994
:101210009BB9F2E6FBB9E3E7EBB969E76BB98BB9C8
:101220008BB95BB94BB9ABB99BB99BB9FBB9EBB9FE
:101230006BB98BB98BB95BB94BB9ABB99BB99BB9DE
:10124000FBB9EBB96BB98BB98BB95BB94BB9ABB91E
:101250009BB99BB9FBB9EBB96BB98BB98BB95BB9CE
:101260004BB9ABB99BB99BB9FBB9EBB96BB98BB9AE
:101270008BB95BB94BB9ABB99BB99BB9FBB9EBB9AE
:101280006BB98BB98BB95BB94BB9ABB99BB99BB98E
:10129000FBB9EBB96BB98BB98BB95BB94BB9ABB9CE
:1012A0009BB99BB9FBB9EBB96BB98BB98BB95BB97E
:1012B0004BB9ABB99BB99BB9FBB9EBB96BB98BB95E
:1012C0008BB95BB94BB9ABB99BB99BB9FBB9EBB95E
:1012D0006BB98BB98BB95BB94BB9ABB99BB99BB93E
:1012E000FBB9EBB96BB98BB98BB95BB94BB9ABB97E
:1012F0009BB99BB9FBB9EBB96BB98BB98BB95BB92E
:101300004BB9ABB99BB99BB9FBB9EBB96BB98BB90D
:101310008BB95BB94BB9ABB99BB99BB9FBB9EBB90D
:101320006BB98BB98BB95BB94BB9ABB99BB99BB9ED
:10133000FBB9EBB96BB98BB98BB95BB94BB9ABB92D
:101340009BB99BB9FBB9EBB96BB98BB98BB95BB9DD
:101350004BB9ABB99BB99BB9FBB9EBB96BB98BB9BD
:101360008BB95BB94BB9ABB99BB99BB9FBB9EBB9BD
:101370006BB98BB98BB95BB94BB9ABB99BB99BB99D
:10138000FBB9EBB96BB98BB98BB95BB94BB9ABB9DD
:101390009BB99BB9FBB9EBB96BB98BB98BB95BB98D
:1013A0004BB9ABB99BB99BB9FBB9EBB96BB98BB96D
:1013B0008BB95BB94BB9ABB99BB99BB9FBB9EBB96D
:1013C0006BB98BB98BB95BB94BB9ABB99BB99BB94D
:1013D000FBB9EBB96BB98BB98BB95BB94BB9ABB98D
:1013E0009BB99BB9FBB9EBB96BB98BB98BB95BB93D
:1013F0004BB9ABB99BB99BB9FBB9EBB96BB98BB91D
:101400008BB95BB94BB9ABB99BB99BB9FBB9EBB91C
:101410006BB98BB98BB95BB94BB9ABB99BB99BB9FC
:10142000FBB9EBB96BB98BB98BB95BB94BB9ABB93C
:101430009BB99BB9FBB9EBB96BB98BB98BB95BB9EC
:101440004BB9ABB99BB99BB9FBB9EBB96BB98BB9CC
:101450008BB95BB94BB9ABB99BB99BB9FBB9EBB9CC
:101460006BB98BB98BB95BB94BB9ABB99BB99BB9AC
:10147000FBB9EBB96BB98BB98BB95BB94BB9ABB9EC
:101480009BB99BB9FBB9EBB96BB98BB98BB95BB99C
:101490004BB9ABB99BB99BB9FBB9EBB96BB98BB97C
:1014A0008BB95BB94BB987EB8BB982EB8BB98BB935
:1014B000A2E6ABB9F3E7FBB9E9E7EBB990E79BB973
:1014C0009BB960EB6BB955EB5BB947EB4BB98BB98B
:1014D0008BB9ABB9FBB9EBB99BB99BB96BB95BB92C
:1014E0004BB98BB98BB9ABB9FBB9EBB99BB99BB90C
:1014F0006BB95BB94BB98BB98BB9ABB9FBB9EBB96C
:101500009BB99BB96BB95BB94BB98BB98BB9ABB90B
:10151000FBB9EBB99BB99BB96BB95BB94BB98BB94B
:101520008BB9ABB9FBB9EBB99BB99BB96BB95BB9DB
:101530004BB98BB98BB9ABB9FBB9EBB99BB99BB9BB
:101540006BB95BB94BB98BB98BB9ABB9FBB9EBB91B
:101550009BB99BB96BB95BB94BB98BB98BB9ABB9BB
:10156000FBB9EBB99BB99BB96BB95BB94BB98BB9FB
:101570008BB9ABB9FBB9EBB99BB99BB96BB95BB98B
:101580004BB98BB98BB9ABB9FBB9EBB99BB99BB96B
:101590006BB95BB94BB98BB98BB9ABB9FBB9EBB9CB
:1015A0009BB99BB96BB95BB94BB98BB98BB9ABB96B
:1015B000FBB9EBB99BB99BB96BB95BB94BB98BB9AB
:1015C0008BB9ABB9FBB9EBB99BB99BB96BB95BB93B
:1015D0004BB98BB98BB9ABB9FBB9EBB99BB99BB91B
:1015E0006BB95BB94BB98BB98BB9ABB9FBB9EBB97B
:1015F0009BB99BB96BB95BB94BB98BB98BB9ABB91B
:10160000FBB9EBB99BB99BB96BB95BB94BB98BB95A
:101610008BB9ABB9FBB9EBB99BB99BB96BB95BB9EA
:101620004BB98BB98BB9ABB9FBB9EBB99BB99BB9CA
:101630006BB95BB94BB98BB98BB9ABB9FBB9EBB92A
:101640009BB99BB96BB95BB94BB98BB98BB9ABB9CA
:10165000FBB9EBB99BB99BB96BB95BB94BB98BB90A
:101660008BB9ABB9FBB9EBB99BB99BB96BB95BB99A
:101670004BB98BB98BB982E78BB97F5F01C070E042
:10168000703110F40C94F90082E78BB986E08A95EA
:10169000F1F700C08C2F8E7F826088B994E69A950E
:1016A000F1F7CC7FC160C8B980E58A95F1F72F5F6B
:1016B0003F4F203A9AE0390710F382E78BB96CED7F
:1016C00070E080E00E94480088B1877F88B9CF91A0
:1016D0000895F89480E48CBD8DB581608DBD8AB18C
:1016E0008FEF8AB982E78BB984B1826184B985B101
:1016F0008D7F85B987B18F6387B988B1817E88B9BD
:1017000088B1816088B98FE493EC0197F1F700C04C
:1017100000006CED70E080E00E94480092E49A9531
:10172000F1F700C060EC70E081E00E944800E2E464
:10173000EA95F1F700C06BE370E082E00E94480098
:10174000F2E4FA95F1F700C06AE070E085E00E94EB
:10175000480022E42A95F1F700C0C8B180E090E08B
:101760000EC02C2F2E7F226028B934E63A95F1F76F
:10177000CC7FC160C8B944E64A95F1F7019680383C
:10178000EAE29E0770F387E893E10197F1F700C062
:101790000000F89410C08C2F8E7F826088B994E688
:1017A0009A95F1F7CC7FC160C8B9EFE0F7E23197C5
:1017B000F1F700C000000DB407FEEDCF9EB5292F54
:1017C00030E08091040118160CF046C0843041F4DA
:1017D000109202019093030181508093040142C052
:1017E000833071F44091020150910301242B352B79
:1017F000309303012093020181508093040132C091
:10180000823041F410920001909301018150809345
:10181000040128C0813031F540910001509101014F
:10182000242B352B309301012093000181508093AC
:10183000040188B18E7F88B9F4E6FA95F1F788B192
:10184000806188B921E22A95F1F7000088B18F7E86
:1018500088B980E090E012C02A3A310519F484E09A
:10186000809304018DB5A7CF3FEF48E0EDE3315001
:101870004040E040E1F700C00000019620910201E5
:10188000309103018217930778F3809100019091C2
:101890000101883E934034F087EE93E0909301017C
:1018A0008093000180E090E007C0E7E8F3E1319722
:1018B000F1F700C000000196209100013091010174
:1018C0008217930790F30E94AF0087E893E1019796
:0C18D000F1F700C000005DCFF894FFCFDE
:00000001FF
